:400000000080002011000000A90A0000A90A000008B5044B1A6803F53F5302331A6000F065FD00BFFA46004010B5054C237833B9044B13B10448AFF300800123237010BDAF
:400040009081FF1F000000009C540000084B10B51BB108490848AFF300800848036803B910BD074B002BFBD0BDE81040184700BF000000009481FF1F9C540000C880FF1F92
:4000800000000000F0B583B004460E4615460021084600F0C5F92349204603F03DF978B3214F204602F030FBCDE900012A461F49384603F011FE384600F0C8F900210120B9
:4000C00000F0AEF93146204602F060FE0446184903F004F918B1174800F0B8F920E01649204603F019F918B1144800F0AFF917E0134800F0ABF94FF47A7000F0C5FE0FE09C
:40010000094C2A460F49204603F0E6FD204600F09DF90021012000F083F90B4800F096F903B0F0BD00002041F091FF1FA05400009A9999BEB05400009A99993EC4540000F6
:40014000D8540000EC540000FC54000070B500F05DFA01F071F800F039F901F073FC00F095FD052000F03EFD01F000FC01F034FC02F046F901F094FF01F0A6FF62B6002117
:40018000084600F04DF95D4800F060F90021012000F046F95A4800F059F94FF47A7000F073FE00F05DF9FF2500F0DAFF840000F0DDFF44EA400044B200F0E0FF204344B2DB
:4001C000E6B2B54264D0142000F05EFE013C052C45D8DFE804F0030E19242F3A4FF4A271484800F0A5FA484B01221A60474A5A6035E04FF4A271464800F09AFA424B0222A1
:400200001A60444A5A602AE04FF4A271424800F08FFA3D4B03221A60404A5A601FE04FF4A2713F4800F084FA374B04221A603D4A5A6014E04FF4A2713B4800F079FA324BD4
:4002400005221A60394A5A6009E04FF4A271384800F06EFA2C4B06221A60364A5A602A4B1B68002B13DD00F0FBF80021084600F0D7F8314C244B1A683049204603F02CFDA9
:40028000204600F0E3F800F063FA354600E035461D4B1B68002B0EDC86E7002001F01CFF01F032FF80B202F023FE174B03EB84039860013400E00024B4F5806FEDDB4FF43F
:4002C00080621F491F4800F0D3F800221E4B1A7000F0CEF91C4B1B7813F0FF0FFAD04FF480611A4800F0D4F8194B43F8F00C064B1A685968FFF7C6FE56E700BF1055000065
:400300001C5500008C5B0000AC81FF1FCDCCA442485A00000000DC4204590000CDCC1243C0570000000044437C56000066E6764338550000CDCCA443F091FF1F28550000F2
:400340000496FF1FB481FF1FBB91FF1F0492FF1FA492FF1F10B50C46002101F021FA10B9204601F0A3FA01F07BFA10BD10B540EA010444F00C012720FFF7ECFF012000F05E
:4003800099FD24F0040141F008012720FFF7E2FF322000F08FFD10BD38B50D460401E4B200F0F000FFF7E2FF29462046FFF7DEFF38BD00BF08B50121FFF7EEFF08BD00BF67
:4003C00008B50021FFF7E8FF08BD00BF08B5322000F05AFD00213020FFF7C8FF052000F053FD00213020FFF7C1FF962000F062FD00213020FFF7BAFF00212020FFF7B6FF7D
:400400002820FFF7DDFF0C20FFF7DAFF0620FFF7D7FF0120FFF7D4FF022000F035FD08BD00B583B00346084A1068019002AA134413F8040C014461F07F00C0B2FFF7C0FFDC
:4004400003B05DF804FB00BFD05C000010B5044602E00134FFF7AEFF20780028F9D110BD08B50120FFF7ACFF022000F00DFD08BDF8B507460E461546002406E057F82400E4
:4004800002F054FF46F824000134AC42F6D3F8BD2DE9F04F89B083468A46002425464FF000084FF00009CDE90689CDE90489CDE902893CE01BF8043013F0010F36D02846FC
:4004C00002F010F906460F4602460B46DDE9020101F0BCFFCDE90201204602F003F9CDE9000102460B46DDE9040101F0AFFFCDE90401DDE900233046394602F059F9024666
:400500000B46DDE9060101F0A1FFCDE9060132463B463046394602F04BF902460B464046494601F093FF80468946013501345445C0DB012D4BDD284602F0D4F804460D46A7
:4005400002460B46DDE9060102F032F906460F46DDE90423DDE9020102F02AF902460B463046394601F070FF06460F4622462B464046494602F01CF904460D46DDE9022380
:400580001046194602F014F902460B462046294601F05AFF04460D460022002302F070FBB8B922462B463046394602F02BFA02F099FB04460A4902F0AFFE60B121460948AF
:4005C00002F0A2FD4FF07C5102F0EAFC04E0002002E0002000E0002009B0BDE8F08F00BF17B7D1385238F94410B5074C207800F091FB607800F08EFBA07800F08BFB012317
:40060000E37000F06BFD10BDB891FF1F10B500F001FD4FF4804341F6FF720121042000F017FD114C207041F6FF734FF480420121084600F059FD60704FF480431A46012187
:40064000084600F06FFDA07000F0E0FB207100F0DDFB607100F0DAFB207200F0D7FB2073024800F02DFD10BDB891FF1FE905000038B52C4C0023E370207B02464FF48061B7
:4006800000F0DEFB46F27B424CF2AA71207B00F0EBFB217BA07800F07BFB0121A07800F01DFB012362794FF40061207900F0C8FB1D4D4CF2A072A9B2207900F0D5FB0123D5
:4006C000FE224FF40061607900F0BAFB05F500614CF2A07289B2607900F0C6FB207A062302464FF4806100F0ABFB104A92B246F26B41207A00F0B8FB217A607800F048FB1E
:400700002179207800F044FB0121607800F0E6FA0121207800F0E2FA0121207800F044FB38BD00BFB891FF1F0496FF1F0492FF1F10B5054C3F2323700A460146034802F0B9
:4007400047FE0023237010BD8CC7004000C2004010B50024074BDC704FF480522146064802F041FE4FF480622146044802F03BFE10BD00BFB891FF1F0496FF1F0492FF1F38
:40078000FEE700BFF0B40022174611E050F82760F3B226F0FF0608E001EB420511F812406D78A5550132013BDBB2002BF4D10137152FEBD9F0BC7047194B1B78DBB203F097
:4007C0000701184A11701B09013213702022164B1A7040F284412F331980092103F5E6631970802103F5CA73197040230F490B7004310A70C3310B7010200131087034312F
:400800000A70052241310A7002310A700849094A1160143213704422074B1A70704700BFCF0100496E5800400D510040045A004020050102445B00407658004008B50A466B
:40084000002102F0D0FD08BD08B502F0C1FD08BD38B500242F4B1C80502202331A70022502331D80182202331A7004222A492B48FFF7EAFF2A4B1D7008224FF040231A7014
:40088000032203F500731A70264B1B78DBB2264A137040F24622254B1A8042F25122023B1A8019250CE0224B1B7803F0010343EA440404F003044FF4F07001F0B1FD013D67
:4008C0000DB1032CEFD115B90320FFF759FF194B4FF480721A8007221A70002216490A704820023108701A700222033B1A7004220A331A70114A137843F003031370013AD8
:40090000137843F001031370013A137843F08003137038BD8040004090010048004100400043004008010049A146004022420040254200400440004006400040A2430040AE
:40094000012807D8044B53F820201844017A13780B431370704700BFD45C0000012808D8044B53F820201844017A137823EA010313707047D45C000038B572B66122344BE5
:400980001A70FFF765FF334A137843F00403137000240BE0304863001A19510001440A46098AD068FFF74AFF0134E4B2072CF1D92A494FF09040FFF7E5FE0A25284B1D702F
:4009C00004212848FFF73AFF04212748FFF736FF04212648FFF732FF254A137843F0020313701032137843F002031370214C237843F040032370A2F58632513A137843F0D4
:400A00001003137008221C491C48FFF71DFF2A461B491C48FFF718FF08221B491B48FFF713FF08221A491B48FFF70EFF08221A491A48FFF709FF1A4A137843F0080313704D
:400A4000FFF7BAFE0E2221461648FFF7FDFE38BD00480040E8460040D45C0000580000488358004000760040087600404076004003500140A04300406401004802510040AB
:400A80006C010048C051004078010048125100408001004822510040880100483251004022430040B043004008B502F065FC03680C2B00D1FEE7FEE708B50A4B1A681044AF
:400AC000094BC31A44F272018B4202DC054B186005E002F051FC0C2303604FF0FF32104608BD00BFCC80FF1F38A6FF1F08B5104E104D16E029686B68AC68002204E051F80E
:400B0000040B43F8040B0432A242F8D1E868002203E0002143F8041B04328242F9D11035013E002EE6D102F02DFCFFF70FFBFEE701000000F064000008B5114A114B1A6039
:400B4000114A136843F40073136000230AE0032B03D80E4A52F8231000E00D490D4A42F8231001332F2BF2D90B4B1A780B4B1A70084A0B4B1A60FFF7FFFE00F095F808BD25
:400B80000004FA050CED00E014ED00E000000000A90A00000080FF1FBC760040C080FF1F08ED00E0084A137843F0010313701032137843F00103137002F5A5521E3213789B
:400BC00043F0800313707047A9430040044A137803F0FC0300F0030018431070704700BF0158004010B487B00446194B03AA1868596803C2197A11706A4653F80C0F5968EA
:400C000003C21B7A1370082C1ED812490B7803F08003DBB20B70087806AB1C4414F80C3C14F8182C920002F00C02134303430B70094A137803F0F3031370117814F8183C40
:400C40000B4343F00C03137007B010BC704700BF105D0000025800400158004008B50C22074B1A70074A137843F0200313700020054B1870FFF7B6FF0320FFF7A7FF08BD25
:400C800000580040015800400258004008B5054B1B7823B9FFF7E2FF0122024B1A70FFF781FF08BDC591FF1F0B4A7F2313708021517007E0DA0002F1804202F5F042013BB6
:400CC000DBB21370002BF5D1DB0003F1804303F5F04300221A707047D080FF1F172815D831B103010A495A5C42F020025A5405E0030107495A5C02F0DF025A540001044A89
:400D0000835C43F00103835400207047012070471070004017280BD80001064BC25C02F0FE02C254C25C02F0DF02C25400207047012070471070004017280BD80001064AD4
:400D4000835C03F0F103490001F00E011943815400207047012070471070004041F6FF73994201D14FF4005141F6FF739A4201D14FF40052172808D8C00000F1804000F569
:400D8000EC408180C280002070470120704700BF172805D8034B03EB00104172002070470120704710700040172809D8054B03EB0010037901F00701194301710020704744
:400DC000012070471070004017281BD810B4C00000F1804404F5EC44D201D2B201F07F01114321709DF804201201D2B203F00F03134363709DF8083003F00F03A370002097
:400E0000E07001E00120704710BC704710B501F00FFB0A4B5B78182B0BD9084A1478013B5370E30003F1804303F5F0431B78137000E0FF2401F000FB204610BDD080FF1FCF
:400E400010F0800F0CD111F4704F0BD1C00000F1804000F5F04001808270C37000207047012070470120704710F0800F08D1C00000F1804000F5F0408180C280002070478B
:400E80000120704701BE704710B5044605E0084B186801F0C5FAA4F50044B4F5004FF6D8034B586800FB04F001F0BAFA10BD00BFD880FF1F08B5034B1B7A00FB03F001F0A7
:400EC000AFFA08BDD880FF1F70B504460E46074B1D681F2802D90020FFF7D4FF04F01F04103455F8240045F8246070BD08ED00E038B504460D46072902D90020FFF7C2FF6E
:400F00001F2C02D90020FFF7BDFF04F01F0000F1604000F564406D01EDB2057038BD00BFF8B5244A137843F01003137002F50342DA32137803F0FE0313703F23083213706E
:400F4000043213701C4D4FF48074224629461B4802F03EFA22462946194802F039FA22461849194802F034FA4FF4007422461749174802F02DFA22461649174802F028FADC
:400F8000164C174E04F14007354620686168A268E3680FC510342E46BC42F5D10020114B187000F045F8012000F04AF8F8220E4B1A70F8BDA64300406862000000C4004090
:400FC00000C50040285D000000C600406860000000C00040685E000000C20040285E000000C700408CC7004084C70040084A137843F0100313701032137843F010031370EA
:4010000002F50342CA32137843F0010313707047A643004008B5054B1B7823B9FFF780FF0122024B1A70FFF7E1FF08BDC691FF1F00F01F00014B1870704700BF98C7004060
:4010400000F00F00014B1870704700BF9CC70040F0B583B016461F460B4C082525700023019300930A4601462846FFF7ADFE3A4631462078FFF772FE02212078FFF75CFEE2
:40108000207803B0F0BD00BFE880FF1F014B1B681864704708ED00E04001C0B2014B1870704700BF00E400E00122014B1A60704700E100E00122014B1A60704780E100E019
:4010C00010B50446FFF7F6FF2046FFF7DFFF0720FFF7E2FFFFF7E8FF10BD00BF0122014B1A60704780E200E0F0B583B016461F460B4D00242C700194009423460A46014699
:401100002046FFF761FE3A4631462878FFF726FE02212878FFF710FE287803B0F0BD00BFE980FF1FF0B583B016461F460B4C012525700023019300930A4601462846FFF746
:4011400043FE3A4631462078FFF708FE02212078FFF7F2FD207803B0F0BD00BFEA80FF1F014B1878C009704721510040024B1878C0F38010704700BF21510040024B187891
:40118000C0F34010704700BF2151004038B50322164B1A7081220E3B1A70082502331D702C2211331A70002401331C704FF400420F4B1A6007210F20FFF79AFE0D490F20DF
:4011C000FFF782FE10220C4B1A700C4B1C700C4B1C700C4B1C70284600F0DAFA0A4B1C700A4B1C700A4B1C7038BD00BFD649004080E100E06112000004A6FF1F09A6FF1F8C
:4012000008A6FF1F10A6FF1F1EA6FF1F20A6FF1F1CA6FF1F08B501F00BF9064A137843F0040313701032137843F00403137001F003F908BDA543004008B5074B1B7823B93C
:40124000FFF7A4FF0122044B1A70FFF7E3FF4FF40042024B1A6008BDC791FF1F00E100E038B5A54B1C78E4B202331B7813F0010F18D0A24B1B7813F0040F13D19F4A137801
:4012800003F0FE0313709E4B1B7813F0080F01D0812300E082239B4A11780B4313701022974B1A7014F0400F1CD0954B1B7813F0080F01D0C12300E0C223924A11780B4351
:4012C0001370914A137803F0EF03137014F0080F03D010228A4B1A7004E00023864A1370874A1370864B1B7813F0400F00F0578114F0010F00F03A81814B1B78453B052B24
:4013000000F23181DFE813F0060082002F012F010600DF0004F0DF0504F00A04082C42D1774B1B78DBB2452B35D1784B1B7813F0FF0F10D0764B1B681B78DBB2754A13700C
:4013400004226D4B1A700122734B1A7046226C4B1A702C460AE1714B1B7813F0020F0DD0684A137843F00A0313706022644B1A704FF400426A4B1A602C46F7E0624A137865
:4013800043F01003137010225C4B1A700422023B1A702C46EAE00022574B1A704A22584B1A702C46E2E00A2C2BD1564A137843F0A0031370594B1B7813F0020F14D0504B3D
:4013C0001B7813F0080F01D0092300E00A234D4A11780B4313706022494B1A704FF400424F4B1A602C46C1E0474A137843F0100313701022414B1A700422023B1A702C466D
:40140000B4E00020FFF73EFD2C46AFE014F0020F36D1414B1A78D2B23C4B1B78DBB29A4210D23D4A1378DBB239490968CB5CDBB238490B700421304B197013780133DBB2EC
:40144000137093E0354B1B7813F0020F0CD02D4A137843F00A0313706022294B1A704FF400422F4B1A6081E0274A137843F0100313701022214B1A700422023B1A7075E025
:40148000264B1B7813F0020F0CD01E4A137843F09A03137060221A4B1A704FF40042204B1A6063E0184A137843F0100313701022124B1A700422023B1A70124A137843F0FE
:4014C0009003137052E0174A1378DBB21649086810490978C9B2C15413780133DBB213701278D2B2114B1B78DBB29A4220D21022014B1A703AE000BFD7490040D949004028
:4015000004A6FF1F1EA6FF1FD64900401FA6FF1F24A6FF1FD84900401CA6FF1F1DA6FF1F80E100E020A6FF1F28A6FF1F2CA6FF1F894B1B7813F0020F0CD0884A137843F0CD
:40154000090313706022864B1A704FF40042854B1A600BE0844A137843F0100313700022824B1A7002E00020FFF78CFC14F0200F00F0F0807A4B1B7813F0080F01D0012330
:4015800000E00223754A11780B431370764A137803F0EF0313701022714B1A7038BD704B1B7813F0100F00F0D28014F0200F03D104F00903092B15D1694B1B78DBB2112B0A
:4015C00010D1694A137803F0EF031370684B1A7802F0DF021A701A7842F010021A7010225F4B1A7014F0010F00F0B48014F0080F42D0604B1B7813F0010F2CD05E4B1A780F
:40160000D2B25E4B1B78DBB29A4215D25A4A1378DBB25B490968CB5CDBB256490B701421524B197013780133DBB21370504A137843F0020313700AE0FF224E4B1A7014228D
:40164000013B1A704A4A137843F0060313701222434B1A7038BD1022444B1A701122404B1A70434A137843F0200313703E4A137843F01003137038BD394B1B78DBB2112B50
:4016800021D1404B1A78D2B23F4B1B78DBB29A4210D2384B1978C9B21022013B1A70394A1378DBB239480068C15413780133DBB2137038BD00222D4B1A702D4A137843F0F2
:4016C0004003137038BD264B1B78DBB2122B3AD114F0020F24D1284B1A78D2B2274B1B78DBB29A4210D2244A1378DBB224490968CB5CDBB21F490B7004211C4B19701378D8
:401700000133DBB2137038BDFF221A4B1A700422013B1A70164A137843F00403137038BDFF22144B1A700022013B1A70104B1A7802F0FD021A701A7842F001021A701022FA
:40174000074B1A7038BD0020FFF79CFB38BD1022034B1A7038BD00BF1DA6FF1F1EA6FF1F04A6FF1F80E100E0D6490040D749004009A6FF1FD849004008A6FF1F18A6FF1FD7
:401780000CA6FF1F10A6FF1F0AA6FF1F14A6FF1F00F07F00014B1870704700BFCA4900402A4B1B78DBB2102B4AD1294B1B7813F0080F47D14FF40042264B1A604000C0B28D
:4017C00029B140F001004922204B1A7002E045221E4B1A70204B1870012201331A701F4B1B7813F0010FFAD0194B1B7813F0010F0ED0174B1B7813F0040F09D1144A1378DE
:4018000003F0FE0313701022104B1A7005207047124B1B7813F0400F07D000220F4B1A7010220A4B1A70042070470C4B1B7803F00A030A2B08D11022044B1A700320704756
:4018400002207047012070470020704704A6FF1FD949004080E100E0D8490040D74900400F4B1B7813F0040F16D010230C4A13700421023A11700B4A13700B4B1B7813F019
:40188000210FFAD0084B1B7813F0400F06D00022054B1A70042070470220704700207047D949004004A6FF1FD7490040174B1B7813F0040F28D0164B18700422013B1A7037
:4018C0004622144B1A70144B1B7813F0010FFAD0114B1B7813F0400F07D000220E4B1A7010220C4B1A70042070470B4B1B7813F0020F04D16022074B1A7000207047602234
:40190000044B1A700320704702207047D9490040D849004004A6FF1FD7490040084A137843F060031370A2F5A652133A137843F0010313701032137843F0010313707047DB
:4019400077580040054B1A7802F0FC021A701A7800F0030010431870704700BF5858004008B50320FFF7EEFF08BD00BF08B5054B1B7823B90122034B1A70FFF7F1FFFFF79C
:40198000CDFF08BDC891FF1F084A137843F060031370A2F5A652133A137843F0040313701032137843F004031370704777580040054B1A7802F0FC021A701A7800F00300D4
:4019C00010431870704700BF5C58004008B50320FFF7EEFF08BD00BF08B5054B1B7823B90122034B1A70FFF7F1FFFFF7CDFF08BDC991FF1F084A137843F060031370A2F572
:401A0000A652133A137843F0080313701032137843F008031370704777580040054B1A7802F0FC021A701A7800F0030010431870704700BF5E58004008B50320FFF7EEFFD6
:401A400008BD00BF08B5054B1B7823B90122034B1A70FFF7F1FFFFF7CDFF08BDCA91FF1F38B59DF81040651EEDB2032D51D8013809282ED8DFE800F0052D2D052D2D0F192B
:401A80002D230F2B03D92548007840B222E02448007840B21EE00F2B03D92248007840B218E02148007840B214E00F2B03D91F48007840B20EE01E48007840B20AE00F2BA1
:401AC00003D91C48007840B204E01B48007840B200E0002001EB401101FB02F2D20B91B20D2B0BD8C3F10E0192B20A4191B2621E124800EB82020133937005E0631E0F4A4F
:401B000002EB83030F229A70013C0C4B23F8241038BD0020FFF7B6F938BD00BF180100491C010049190100491D0100491A0100491E0100491B0100491F010049CC91FF1FFF
:401B4000F8B5074600F074FC06460D4D2B7843F003032B700B4C237843F0030323700A4B1F700320FFF7A6F92B7803F0FC032B70237803F0FC032370304600F05DFCF8BDD0
:401B8000F8460040F946004092580040F8B504460022C14B1A7401285CD13822BF4B1A70042202331A70062201331A70002501331D7001331D703F2201331A7002331D70B4
:401BC00001331D7001331D7001260A331E70502203F527631A700A23B14A13702C2101321170013215704421033211704821013211700132167002321570013215700132FA
:401C000013704322A74B1A705220FFF799FF5822A54B1A7001331D70052205331A70022201331A7001331D7001331D70284600F0ABFA43F233329D4B1A603146102000F0A8
:401C4000C7FA314640F2212000F046FB98491D20FFF73AF9022C5DD13822904B1A70042202331A70062201331A70002501331D7001331D703F2201331A7002331D7001339F
:401C80001D7001331D7001260A331E70502203F527631A70272201331A702C2201331A7001331D70552203331A705A2201331A70052701331F7002331E70112201331A707E
:401CC000192201331A70972201331A704420FFF737FF5822744B1A7001331D7005331F70022201331A7001331D7001331D70284600F04AFA4FF47A426C4B1A6031461020BC
:401D000000F066FA31466C2000F0E6FA69491D20FFF7DAF8032C5DD13822604B1A70042202331A70062201331A70002501331D7001331D703F2201331A7002331D70013356
:401D40001D7001331D7001260A331E70502203F527631A70272201331A702C2201331A7001331D70552203331A705A2201331A70052701331F7002331E70112201331A70BD
:401D8000192201331A70972201331A704420FFF7D7FE5822444B1A7001331D7005331F70022201331A7001331D7001331D70284600F0EAF94FF47A423C4B1A60314610201D
:401DC00000F006FA31466C2000F086FA3A491D20FFF77AF8042C5DD13822304B1A70042202331A70062201331A70002401331C7001331C703F2201331A7002331C70013318
:401E00001C7001331C7001250A331D70502203F527631A70272201331A702C2201331A7001331C70552203331A705A2201331A70052601331E7002331D70112201331A7004
:401E4000192201331A70972201331A704420FFF777FE5822144B1A7001331C7005331E70022201331A7001331C7001331C70204600F08AF94FF47A420C4B1A602946102090
:401E800000F0A6F929466C2000F026FA0B491D20FFF71AF8F8BD00BFCC91FF1F004E004085580040915800409458004030A6FF1F592100005D21000061210000652100000C
:401EC0002DE9F04182B0394D4FF0010885F80080374E00247474102000F068F9102000F0E9F907211D20FFF703F80427314B1F7001331C7007331C702F4A137843F0180326
:401F000013702E4B1C7003F2F5231C7001331C700A22A3F209331A7001331C7002331C705B2205331A705E2201331A7004331C701422A3F68C231A70CDF8008010234FF4B5
:401F4000004248F6F0510220FFF78AFD0223009310234FF4004249F2DA012046FFF780FD0323009310234FF4004249F2DA012046FFF776FD009710234FF4004249F2DA01E7
:401F80002046FFF76DFD2B78013B06EB83039A780B4B1A702B78013B36F82320094B1A802878FFF7F3FD02B0BDE8F081EB80FF1FCC91FF1F96580040075B00409358004088
:401FC0000E4E00400C4E004070B500F031FA06462A4B1B782A4B1A7842F001021A701A7842F010021A7010331A7842F001021A701A7842F010021A70224D2B7843F00203B3
:402000002B70214C237843F0020323701F4A137843F0030313700320FEF74CFF2B7803F0FD032B70237803F0FD032370184A137843F0060313707A22164B1A70164A1378AF
:4020400043F0010313701032137843F0010313700F3A137843F0010313701032137843F0010313704FF000530C4A1360A2F5C0721360304600F0E0F970BD00BFEB80FF1FBF
:40208000AA430040F8460040F9460040915800407758004082580040A143004080E200E008B5084B9B7C4BB9064BDB7C13F0FF0F01D1FFF705FF0122024B9A74FFF784FF97
:4020C00008BD00BFCC91FF1F024A137843F0010313707047004E0040094B1B7C13F0FF0F03D0074B5B7CDBB203E0064B1B7803F00103012B01D00028EED01846704700BF11
:40210000CC91FF1F014E00400E4B1B7803F00303012B03D80C4B188880B209E00A4A12780A49087842EA0020032B01D1084B1B78084B1B7C13F0FF0F02D00022054B5A74A7
:4021400000B27047144E0040104E0040114E0040124E0040CC91FF1F704700BF704700BF704700BF704700BF10B5002404E02046FEF7F4FB0134E4B2012CF8D9FF22014BD7
:402180001A7010BDEC80FF1F10B50446FFF7ECFF2046FEF7D5FB014B1C7010BDEC80FF1F014B188880B2704780400040034B1A7800F0F80010431870704700BF8240004004
:4021C000024B187800F00700704700BF8240004070B505460E46FFF7F3FF0446FFF7E0FFA84256D02B4B1B7803F0010294B900B185B938B9284B1D80284A137803F0BF03CA
:40220000137070BD254A137843F040031370224B1D8070BD22B3002321490B7001240F310C7004310B700C390B7803F07F030B701A4B1B7813F0080F00D08DB9194B18807A
:402240000721013B1970164B1B7813F0010FFAD110490B7803F0FE030B700021104B19700C4B1B7813F0010F0DD00E4B1D800EB1032200E001220A4B1A70094B1B7813F0CF
:40228000010FFAD170BD044B1D8002490B7813430B7070BDA243004080400040824000400140004002400040014B188880B2704700410040034B1A7800F0F800104318703B
:4022C000704700BF02410040024B187800F00700704700BF0241004070B505460E46FFF7F3FF0446FFF7E0FFA84256D02B4B1B7803F0010294B900B185B938B9284B1D8001
:40230000284A137803F0BF03137070BD254A137843F040031370224B1D8070BD22B3002321490B70012413310C7004390B7008390B7803F07F030B701A4B1B7813F0080FD1
:4023400000D08DB9194B18800721013B1970164B1B7813F0010FFAD110490B7803F0FE030B700021104B19700C4B1B7813F0010F0DD00E4B1D800EB1032200E001220A4B30
:402380001A70094B1B7813F0010FFAD170BD044B1D8002490B7813430B7070BDA143004000410040024100400140004002400040084A137843F060031370A2F5A652133AEC
:4023C000137843F0020313701032137843F002031370704777580040054B1A7802F0FC021A701A7800F0030010431870704700BF5A58004008B50320FFF7EEFF08BD00BFDE
:4024000008B5054B1B7823B90122034B1A70FFF7F1FFFFF7CDFF08BDE491FF1F000000000230800803D000BF01380046FCD17047EFF3108072B6704780F31088704700BF04
:4024400081F0004102E000BF83F0004330B54FEA41044FEA430594EA050F08BF90EA020F1FBF54EA000C55EA020C7FEA645C7FEA655C00F0E2804FEA5454D4EB5555B8BFB0
:402480006D420CDD2C4480EA020281EA030382EA000083EA010180EA020281EA0303362D88BF30BD11F0004F4FEA01314FF4801C4CEA113102D0404261EB410113F0004F9E
:4024C0004FEA03334CEA133302D0524263EB430394EA050F00F0A780A4F10104D5F1200E0DDB02FA0EFC22FA05F2801841F1000103FA0EF2801843FA05F359410EE0A5F10C
:4025000020050EF1200E012A03FA0EFC28BF4CF0020C43FA05F3C01851EBE37101F0004507D54FF0000EDCF1000C7EEB00006EEB0101B1F5801F1BD3B1F5001F0CD3490825
:402540005FEA30004FEA3C0C04F101044FEA445212F5800F80F09A80BCF1004F08BF5FEA500C50F1000041EB045141EA050130BD5FEA4C0C404141EB010111F4801FA4F1A7
:402580000104E9D191F0000F04BF01460020B1FA81F308BF2033A3F10B03B3F120020CDA0C3208DD02F1140CC2F10C0201FA0CF021FA02F10CE002F11402D8BFC2F1200CB4
:4025C00001FA02F120FA0CFCDCBF41EA0C019040E41AA2BF01EB0451294330BD6FEA04041F3C1CDA0C340EDC04F11404C4F1200220FA04F001FA02F340EA030021FA04F332
:4026000045EA030130BDC4F10C04C4F1200220FA02F001FA04F340EA0300294630BD21FA04F0294630BD94F0000F83F4801306BF81F480110134013D4EE77FEA645C18BFDC
:402640007FEA655C29D094EA050F08BF90EA020F05D054EA000C04BF1946104630BD91EA030F1EBF0021002030BD5FEA545C05D14000494128BF41F0004130BD14F58004CB
:402680003CBF01F5801130BD01F0004545F0FE4141F470014FF0000030BD7FEA645C1ABF194610467FEA655C1CBF0B46024650EA013406BF52EA033591EA030F41F400214F
:4026C00030BD00BF90F0000F04BF0021704730B54FF4806404F132044FF000054FF0000150E700BF90F0000F04BF0021704730B54FF4806404F1320410F0004548BF404224
:402700004FF000013EE700BF42004FEAE2014FEA31014FEA02701FBF12F07F4393F07F4F81F06051704792F0000F14BF93F07F4F704730B54FF4607401F0004521F0004145
:4027400020E700BF50EA010208BF704730B54FF000050AE050EA010208BF704730B511F0004502D5404261EB41014FF4806404F132045FEA915C3FF4DCAE4FF003025FEA26
:40278000DC0C18BF03325FEADC0C18BF033202EBDC02C2F1200300FA03FC20FA02F001FA03FE40EA0E0021FA02F11444C1E600BF70B54FF0FF0C4CF4E06C1CEA11541DBF00
:4027C0001CEA135594EA0C0F95EA0C0F00F0DEF82C4481EA030621EA4C5123EA4C5350EA013518BF52EA033541F4801143F4801338D0A0FB02CE4FF00005E1FB02E506F07F
:402800000042E0FB03E54FF00006E1FB03569CF0000F18BF4EF0010EA4F1FF04B6F5007F64F5407404D25FEA4E0E6D4146EB060642EAC62141EA55514FEAC52040EA5E504B
:402840004FEACE2EB4F1FD0C88BFBCF5E06F1ED8BEF1004F08BF5FEA500E50F1000041EB045170BD06F0004646EA010140EA020081EA0301B4EB5C04C2BFD4EB0C0541EA59
:40288000045170BD41F480114FF0000E013C00F3AB8014F1360FDEBF002001F0004170BDC4F10004203C35DA0C341BDC04F11404C4F1200500FA05F320FA04F001FA05F28E
:4028C00040EA020001F0004221F0004110EBD37021FA04F642EB06015EEA430E08BF20EAD37070BDC4F10C04C4F1200500FA04F320FA05F001FA04F240EA020001F00041D8
:4029000010EBD37041F100015EEA430E08BF20EAD37070BDC4F1200500FA05F24EEA020E20FA04F301FA05F243EA020321FA04F001F0004121FA04F220EA020000EBD37078
:402940005EEA430E08BF20EAD37070BD94F0000F0FD101F00046400041EB010111F4801F08BF013CF7D041EA060195F0000F18BF704703F00046520043EB030313F4801F3D
:4029800008BF013DF7D043EA0603704794EA0C0F0CEA135518BF95EA0C0F0CD050EA410618BF52EA4306D1D181EA030101F000414FF0000070BD50EA410606BF1046194693
:4029C00052EA430619D094EA0C0F02D150EA013613D195EA0C0F05D152EA03361CBF104619460AD181EA030101F0004141F0FE4141F470014FF0000070BD41F0FE4141F490
:402A0000780170BD70B54FF0FF0C4CF4E06C1CEA11541DBF1CEA135594EA0C0F95EA0C0F00F0A7F8A4EB050481EA030E52EA03354FEA013100F088804FEA03334FF0805510
:402A400045EA131343EA12634FEA022245EA111545EA10654FEA00260EF000419D4208BF964244F1FD0404F5407402D25B084FEA3202B61A65EB03055B084FEA32024FF42B
:402A800080104FF4002CB6EB020E75EB030E22BFB61A754640EA0C005B084FEA3202B6EB020E75EB030E22BFB61A754640EA5C005B084FEA3202B6EB020E75EB030E22BF9C
:402AC000B61A754640EA9C005B084FEA3202B6EB020E75EB030E22BFB61A754640EADC0055EA060E18D04FEA051545EA16754FEA06164FEAC30343EA52734FEAC2025FEA4D
:402B00001C1CC0D111F4801F0BD141EA00014FF000004FF0004CB6E711F4801F04BF01430020B4F1FD0C88BFBCF5E06F3FF6AFAEB5EB030C04BFB6EB020C5FEA500C50F160
:402B4000000041EB045170BD0EF0004E4EEA113114EB5C04C2BFD4EB0C0541EA045170BD41F480114FF0000E013C90E645EA060E8DE60CEA135594EA0C0F08BF95EA0C0FB0
:402B80003FF43BAF94EA0C0F0AD150EA01347FF434AF95EA0C0F7FF425AF104619462CE795EA0C0F06D152EA03353FF4FDAE1046194622E750EA410618BF52EA43067FF445
:402BC000C5AE50EA41047FF40DAF52EA43057FF4EBAE12E74FF0FF3C06E000BF4FF0010C02E000BF4FF0010C4DF804CD4FEA410C7FEA6C5C4FEA430C18BF7FEA6C5C1BD08B
:402C000001B050EA410C0CBF52EA430C91EA030F02BF90EA020F0020704710F1000F91EA030F58BF994208BF90422CBFD8176FEAE37040F0010070474FEA410C7FEA6C5C09
:402C400002D150EA013C07D14FEA430C7FEA6C5CD6D152EA033CD3D05DF8040B704700BF8446104662468C461946634600E000BF01B5FFF7B7FF002848BF10F1000F01BD3A
:402C80004DF808EDFFF7F4FF0CBF012000205DF808FB00BF4DF808EDFFF7EAFF34BF012000205DF808FB00BF4DF808EDFFF7E0FF94BF012000205DF808FB00BF4DF808ED76
:402CC000FFF7CEFF94BF012000205DF808FB00BF4DF808EDFFF7C4FF34BF012000205DF808FB00BF4FEA4102B2F1E04324BFB3F5001CDCF1FE5C0DD901F0004C4FEAC002FA
:402D00004CEA5070B2F1004F40EB830008BF20F00100704711F0804F21D113F13872BCBF01F00040704741F480114FEA5252C2F11802C2F1200C10FA0CF320FA02F018BF60
:402D400040F001004FEAC1234FEAD32303FA0CFC40EA0C0023FA02F34FEA4303CCE77FEA625307D150EA01331EBF4FF0FE4040F44000704701F0004040F0FE4040F400009B
:402D8000704700BF80F0004002E000BF81F0004142001FBF5FEA410392EA030F7FEA226C7FEA236C6AD04FEA1262D2EB1363C1BFD218414048404140B8BF5B42192B88BFC3
:402DC000704710F0004F40F4000020F07F4018BF404211F0004F41F4000121F07F4118BF494292EA030F3FD0A2F1010241FA03FC10EB0C00C3F1200301FA03F100F000434B
:402E000002D5494260EB4000B0F5000F13D3B0F1807F06D340084FEA310102F10102FE2A51D2B1F1004F40EBC25008BF20F0010040EA03007047490040EB000010F4000F2D
:402E4000A2F10102EDD1B0FA80FCACF1080CB2EB0C0200FA0CF0AABF00EBC25052421843BCBFD0401843704792F0000F81F4000106BF80F400000132013BB5E74FEA4103CC
:402E80007FEA226C18BF7FEA236C21D092EA030F04D092F0000F08BF0846704790EA010F1CBF0020704712F07F4F04D1400028BF40F00040704712F100723CBF00F5000008
:402EC000704700F0004343F0FE4040F4000070477FEA226216BF08467FEA23630146420206BF5FEA412390EA010F40F4800070474FF0000304E000BF10F0004348BF4042EA
:402F00005FEA000C08BF704743F0964301464FF000001CE050EA010208BF70474FF000030AE000BF50EA010208BF704711F0004302D5404261EB41015FEA010C02BF8446C3
:402F40000146002043F0B64308BFA3F18053A3F50003BCFA8CF2083AA3EBC25310DB01FA02FC634400FA02FCC2F12002BCF1004F20FA02F243EB020008BF20F001007047BB
:402F800002F1200201FA02FCC2F1200250EA4C0021FA02F243EB020008BF20EADC7070474FF0FF0C1CEAD0521EBF1CEAD15392EA0C0F93EA0C0F6FD01A4480EA010C400297
:402FC00018BF5FEA41211ED04FF0006343EA501043EA5111A0FB01310CF00040B1F5000F3EBF490041EAD3715B0040EA010062F17F02FD2A1DD8B3F1004F40EBC25008BFC3
:4030000020F00100704790F0000F0CF0004C08BF49024CEA502040EA51207F3AC2BFD2F1FF0340EAC250704740F400004FF00003013A5DDC12F1190FDCBF00F00040704715
:40304000C2F10002410021FA02F1C2F1200200FA02FC5FEA310040F1000053EA4C0308BF20EADC70704792F0000F00F0004C02BF400010F4000F013AF9D040EA0C0093F0D6
:40308000000F01F0004C02BF490011F4000F013BF9D041EA0C018FE70CEAD15392EA0C0F18BF93EA0C0F0AD030F0004C18BF31F0004CD8D180EA010000F00040704790F0CE
:4030C000000F17BF90F0004F084691F0000F91F0004F14D092EA0C0F01D142020FD193EA0C0F03D14B0218BF084608D180EA010000F0004040F0FE4040F40000704740F022
:40310000FE4040F4400070474FF0FF0C1CEAD0521EBF1CEAD15392EA0C0F93EA0C0F69D0A2EB030280EA010C49024FEA402037D04FF0805343EA111143EA10130CF0004064
:403140008B4238BF5B0042F17D024FF4000C8B4224BF5B1A40EA0C00B3EB510F24BFA3EB510340EA5C00B3EB910F24BFA3EB910340EA9C00B3EBD10F24BFA3EBD10340EA95
:40318000DC001B0118BF5FEA1C1CE0D1FD2A3FF650AF8B4240EBC25008BF20F0010070470CF0004C4CEA50207F32C2BFD2F1FF0340EAC250704740F400004FF00003013A91
:4031C00037E792F0000F00F0004C02BF400010F4000F013AF9D040EA0C0093F0000F01F0004C02BF490011F4000F013BF9D041EA0C0195E70CEAD15392EA0C0F08D1420222
:403200007FF47DAF93EA0C0F7FF470AF084676E793EA0C0F04D14B023FF44CAF08466EE730F0004C18BF31F0004CCAD130F000427FF45CAF31F000437FF43CAF5FE700BF9D
:403240004FF0FF3C06E000BF4FF0010C02E000BF4FF0010C4DF804CD4FEA40024FEA41037FEA226C18BF7FEA236C11D001B052EA530C18BF90EA010F58BFB2EB030088BF96
:40328000C81738BF6FEAE17018BF40F0010070477FEA226C02D15FEA402C05D17FEA236CE4D15FEA412CE1D05DF8040B704700BF844608466146FFE70FB5FFF7C9FF00283D
:4032C00048BF10F1000F0FBD4DF808EDFFF7F4FF0CBF012000205DF808FB00BF4DF808EDFFF7EAFF34BF012000205DF808FB00BF4DF808EDFFF7E0FF94BF012000205DF849
:4033000008FB00BF4DF808EDFFF7D2FF94BF012000205DF808FB00BF4DF808EDFFF7C8FF34BF012000205DF808FB00BF4FEA4002B2F1FE4F0FD34FF09E03B3EB12620DD9B8
:403340004FEA002343F0004310F0004F23FA02F018BF404270474FF00000704712F1610F01D1420205D110F0004008BF6FF0004070474FF000007047014B1868704700BF23
:403380005081FF1F0E4B70B51E460E4C0025E41AA410A54204D056F8253098470135F8E703F094F8084B094C1E46E41AA4100025A54204D056F8253098470135F8E770BDD8
:4033C000D8640000D8640000D8640000E064000010B5431E0A44914204D011F8014B03F8014FF8E710BD03460244934202D003F8011BFAE770472DE9F04788B0149F002B26
:403400001E461299B8BF03F1004327F02007B6BF1E4600232D23462F1446109DDDF84CA00B7003D0452F03D1013501E0032300E0022307AA049206AA03928DE8280422469B
:40344000334600F001FD472F804602D1119BDB0728D5462F08EB050911D198F80030302B0AD10022002320463146FFF709FC18B9C5F10105CAF80050DAF800309944002240
:40348000002320463146FFF7FBFB08B9302202E0CDF81C9006E0079B994503D9591C07911A70F8E74046079B159AC8EB0303136008B0BDE8F087034673B50029B8BF49428F
:4034C00003F8022BB4BF2D222B22092942701ADD0DF1070216460A2591FBF5F405FB1411092C01F1300102F8011D2146F4DC3031541E02F8011CB4421A460AD214F8012B93
:4035000003F8012BF7E71A463024214402F8024B5970101A02B070BD2DE9F04F91B00C46DDF8688016461F46054601F025FA03681846099300F0F4FB00230E93D8F800308B
:403540000A90073323F0070303F1080294F81890D4F800B0C8F80020D3E90023C4E91223D4F84CA0D4F848802AF000430B934FF0FF32A74B40460B9901F052FFA0B94FF05E
:40358000FF32A34B40460B99FFF78EFB60B90022002340465146FFF77DFB10B12D2384F843309C4B9C4A0AE0424653464046514601F036FF002800F09281984B984AB9F1A5
:4035C000470F8CBF90469846032323612BF0040323604FF0000A3DE0B9F1670F00F08A81B9F1470F00F0868123600193636800210DF1330205900292009342465346069105
:40360000CDF81090CDF80CE02846FFF7F4FE09F0DF03472B804600F08481B9F1650F0D9900F28D8101394A4604F150000D91FFF742FF0E9A82468318012A236100F37C81C4
:403640002268D10700F178819DF8333013B12D2384F84330009733460FAA2146284600F09FF9013002D14FF0FF3096E123685A0501D4236965E0B9F1650F40F2D580D4E902
:40368000120100220023FFF7FBFA78B30123654A31462846B8470130E5D00E9B0D9A9A420BDB2368D80708D423689B0740F111814FF0000804F1190906E10A9B099A3146B3
:4036C0002846B8470130CED04FF0000804F11A090E9B013B9845E7DA01234A4631462846B8470130BFD008F10108F1E70D9B002B29DC01234B4A31462846B8470130B2D052
:403700000D9B23B90E9B13B92368D907CCD50A9B099A31462846B8470130A4D04FF0000904F11A0A0D9B5B42994509DA0123524631462846B847013095D009F10109F1E73A
:403740000E9B4246A7E00E9AA36D9A42A8BF1A46002A914606DC4FF0000A29EAE97904F11A0B11E01346314642462846B8470130F1D178E701235A4631462846B84701309A
:403780003FF471AF0AF1010AA36DC9EB03029245F0DB08EB03090D9A0E9B9A420FDB2368DA070CD40E9B0D9A9844C9EB08089B1A9845A8BF9846B8F1000F08DC0FE00A9BED
:4037C000099A31462846B8470130EBD14BE743464A4631462846B84701303FF444AF4FF0000928EAE87804F11A0A09E00123524631462846B84701303FF435AF09F1010927
:403800000D9A0E9B9B1AC8EB03039945EEDB4BE7FFFFEF7F6A6300006E63000072630000766300007A6300000E9A012A01DCDB0738D50123424631462846B84701303FF4C9
:4038400012AF0A9B099A31462846B84701303FF40AAFD4E9120100220023FFF711FA20B14FF0000804F11A090EE00E9B08F10102013B19E001234A4631462846B847013067
:403880003FF4F1AE08F101080E9B013B9845F1DB534604F1500231462846B84701307FF403AFE0E64246012331462846B8470130EED1D8E601234A4631462846B8470130BF
:4038C0003FF4D1AE08F10108E3680F9A9B1A9845F0DBE0680F9B9842B8BF18465DE062680EA8531C0DF1340E4BF480637FF474AE062201E012B90122626075E60021069133
:403900000DF133018DE80C00236005904246CDF81090CDF80CE0029153462846FFF76BFD80460D9BD81C02DB626893421DDDA9F102095FFA89F970E60133236184E6B9F1AC
:40394000660F14D10029636807DD216113B92268D2071DD501330B4419E013B92268D00701D5023313E0012311E04FF067090D9B0E9A934205DB22682361D10708D501330B
:4039800005E0002BD4BFC3F102030123134423610D9B4FF0000AA36556E611B0BDE8F08F2DE9F04791461F460A698B6806469342B8BF1346C9F8003091F843200C46DDF8AE
:4039C000208012B10133C9F800302368990642BFD9F800300233C9F80030256815F0060510D104F1190A07E00123524639463046C04701301AD00135E368D9F800209B1A76
:403A00009D42F1DB94F843302268003318BF012392060FD5E118302081F843005A1C94F845102244023382F8431003E04FF0FF30BDE8F08704F1430239463046C047013010
:403A4000F4D02268D9F80050E36802F00602042A08BF5D1B2269A3680CBF25EAE57500259342C4BF9B1AED184FF000091A344D4509D00123224639463046C0470130D5D0C5
:403A800009F10109F3E70020BDE8F0872DE9F04317460A7E85B06E2A984606460C460C9B01F1430E00F0AE8011D8632A22D009D8002A00F0BB80582A40F0CA8081F84520F5
:403AC000834955E0642A1ED0692A1CD0C0E0732A00F0B08009D86F2A2ED0702A40F0B8800A6842F020020A603EE0752A24D0782A3AD0ADE01A6801F14205111D19601368FC
:403B000084F84230A8E021681A6811F0800F02D0111D196008E011F0400F02F10401196002D0B2F9003000E01368002B3CDA2D225B4284F8432037E021681A6811F0800F8C
:403B400002D0111D196007E011F0400F02F10401196001D0138800E01368227E5C496F2A14BF0A2208221BE078225A4984F845202268186812F0800F00F104051D6003D157
:403B8000550601D5038800E00368D00744BF42F0200222601BB9226822F0200222601022002084F8430001E049490A226568002DA56008DB206820F0040020602BB9002D7B
:403BC0007DD175460CE0002B79D07546B3FBF2F002FB1033CB5C05F8013D03460028F5D1082A0BD12368DA0708D5236962689A42DEBF302305F8013C05F1FF35C5EB0E039A
:403C000023612EE008681A6810F0800F496903D0101D1860136808E010F0400F02F104001860136801D0198000E0196000232361754616E01A68111D1960156800216268FF
:403C4000284600F0A5FE08B1401B6060636804E004F1420584F8422001232361002384F84330CDF800803B4603AA21463046FFF797FE013002D14FF0FF3026E023692A469D
:403C800039463046C0470130F5D023689B0710D5002504F1190907E001234A4639463046C0470130E7D00135E368039A9B1A9D42F2DBE068039B9842B8BF184605E00B78C9
:403CC00004F1420584F842308AE705B0BDE8F0837C6300008D6300000EB400B54FF402719CB0ADF814106FF00041049107914FF6FF711DAB02900690084853F8042BADF86A
:403D00001610006802A9019301F038FA029B00221A701CB05DF804EB03B070475081FF1F034613F8012B002AFBD1181A013870472DE9F74F03690C6980469C427FDC013CD0
:403D400001F114074FEA840E00F1140606EB0E0357F82450019356F824300135B3FBF5F507EB0E09C5B34FF0000A3846B446D34650F8043B9AB205FB02A21B0C4FEA124A09
:403D800005FB03A392B2C2EB0B0BBCF800204FEA134A5A441FFA83FBDCF800308145CBEB134303EB224392B242EA03424FEA234B4CF8042BDCD256F80E306BB9019B043B86
:403DC0009E421A4602D3C8F8104005E01268043B002AF8D1013CF3E7404600F0F4FF00282BDB304601354FF0000E57F8042B036891B2C1EB0E0E120C99B27144C2EB134351
:403E000003EB214389B24FEA234EB94541EA034340F8043BE9D256F8242006EB840362B9043B9E421A4602D3C8F8104005E01268043B002AF8D1013CF3E7284600E000200B
:403E400003B0BDE8F08F00002DE9F04F456A95B08246219CCDE9022345B9102000F090FDCAF82400456085600560C560DAF82430196859B15A68012393404A608B60504688
:403E800000F0C9FDDAF8243000221A60039BA04A002BBDBF01232360039B0023BCBF23F000430393DDF80C80A8BF236028F000431B0D1B0593421DD142F20F73209A1360F8
:403EC000029B43B9934A944BC8F31300002814BF1846104600E09048229B002B00F04685C37813B100F1080300E0C31C229A136000F03CBDDDE9024500220023204629469C
:403F0000FEF7BEFE074658B1209A01231360229B002B00F01E8581481860013800F026BD12AB019313AB009322462B46504600F0C5FFC8F30A56049056B1C5F3130343F0E5
:403F40007F51204641F44011A6F2FF3611971DE0139B129E1E4406F23243202B0ADD029A06F21240C3F1400322FA00F008FA03F3184304E0C3F12000029B03FA00F0FEF741
:403F8000A1FB0123A1F1F871013E11930022644BFEF75AFA58A3D3E90023FEF709FC58A3D3E90023FEF752FA044630460D46FEF799FB55A3D3E90023FEF7FAFB02460B4664
:403FC00020462946FEF742FA04460D4601F03EFA00228346002320462946FEF75BFE58B15846FEF77FFB02460B4620462946FEF747FE08B90BF1FF3BBBF1160F0DD8DDE993
:404000000223484901EBCB01D1E90001FEF760FE30B10BF1FF3B002300E00123109300E01090129B9E1B731E079343BFC3F10008002307934FF00008BBF1000F06DB079B12
:40404000CDF82CB05B440793002705E00023CBEB0808CBF100070B931E9B092B28D8052BC4BF043B1E931E9BC8BF0025A3F10203D8BF0125032B20D8DFE803F0060E0204CB
:40408000012302E0012308E000230A931F9B002B1DDD9946059321E000230A931F9B0BEB030909F10103012B0593B8BF012315E0012500231E930A9501E001230A934FF08F
:4040C000FF390022CDF8149012231F9206E04FF001094B46CDF81490CDF87C90DAF8244000226260042101F114029A421CD86268490001326260F6E761436F63A787D23F6C
:40410000B3C8608B288AC63FFB799F501344D33F0000F07F9E630000A76300007B6300000000F83FB86300006168504600F03EFCDAF8243020601B680693059B0E2B00F2D6
:404140005B81002D00F05881DDE90234BBF1000FCDE90E3430DD9F4A0BF00F034FEA2B1502EBC303E80618CBCDE908340CD5DDE90E01994B05F00F05D3E90823FEF742FC0F
:404180000324CDE9020100E00224934E6DB1E90708D5DDE90801D6E90023FEF709FBCDE9080101346D100836F0E7DDE90823DDE90201FEF727FC20E0CBF1000505B3DDE90C
:4041C0000E01844B05F00F0203EBC203D3E90023FEF7EEFACDE902017F4E2D110023022455B1EA0705D5D6E90023FEF7E1FA013401236D100836F3E71BB1CDE9020100E089
:404200000224109BE3B1DDE902560022734B28463146FEF73FFD98B1059B8BB1B9F1000F40F3E6800BF1FF330893314600226C4B2846FEF7BDFA0134CDE902014E4602E0F7
:40424000059ECDF820B02046FEF74CFADDE90223FEF7AEFA634B0022FEF7F8F8A1F1507304460C931D46D6B9DDE9020100225E4BFEF7EAF822460C9BCDE90201FEF728FDAB
:40428000002840F03F820C99224601F10043DDE90201FEF7FFFC002840F02B82A8E00A9A4C4B711E002A49D003EBC103D3E9002300204E49FEF7A6FB22462B46FEF7C4F8E8
:4042C000CDE90C01069CDDE9020101F0BFF80546FEF708FA02460B46DDE90201FEF7B4F8DDE90C23303504F8015BCDE90201FEF7D1FC002840F01D83DDE9022300203749F3
:40430000FEF7A2F8DDE90C23FEF7C4FC002840F0D180069BE31AB3426ADADDE90C0100222F4BFEF745FA0022CDE90C01DDE902012B4BFEF73DFACDE90201C4E703EBC101BD
:404340002246D1E900012B46FEF732FA069BCDE90C011D469C19DDE9020101F077F80646FEF7C0F902460B46DDE90201FEF76CF8303605F8016BAC42CDE902014FF0000277
:4043800022D11A4BDDE90C01FEF760F802460B46DDE90201FEF79CFC002840F08B80DDE90C2300201149FEF74FF802460B46DDE90201FEF76FFCD8B114F8013C621E302B19
:4043C00040F0B7821446F7E7054BFEF7F1F9CDE90201C0E7B8630000906400000000F03F0000244000001C40000014400000E03FDDE90E34CDE90234139B002B7CDBBBF14C
:404400000E0F79DCAB4B03EBCB03D3E900671F9B002B14DA059B002B11DC40F06C810022A54B30463946FEF7C3F9DDE90223FEF745FC059D2E46002840F05F8165E1069C7E
:40444000DDE9028932463B4640464946FEF7DAFA00F0FCFF0546FEF745F932463B46FEF7A7F90B46024649464046FDF7EDFF05F1300E069B04F801EBC3EB040E059B7345BA
:404480002DD102460B46FDF7E1FF8046894602460B4630463946FEF7FDFB78B942464B4630463946FEF7ECFB002800F04482EB0704D440E2DDF820B000E01C4614F8012C7C
:4044C000631E392A07D1069A9A42F6D1069930220BF1010B0A701A7801321A702BE20022764BFEF765F90022002380468946FEF7C7FB0028A6D01EE20A9A002A2BD01E9A08
:40450000012A0ADC119A12B103F2334302E0129BC3F136033D46444613E0059B5D1EAF42BFBF0B9BEA1B9B180B93059BB6BF2F467D1B0025002BA7BF4446059BC3EB0804D3
:404540000023079A01211A4450469844079200F001FB064602E03D4644460A9E5CB1079B002B08DDA342A8BF2346079AC3EB0808E41AD31A0793002F1DDD0A9BABB18DB15D
:4045800031462A46504600F07FFB049A01460646504600F0E8FA04990890504600F03BFA089B04937A1B06D000E03A460499504600F06AFB04900121504600F0CBFA0B9B57
:4045C00005465BB31A460146504600F05DFB1E9B0546012B18DC029B83B9039BC3F3130373B9039B23F000473F0D3F054FB1079B08F1010801330793012702E0002700E03F
:40460000029F0B9B73B100E000272B6905EB8303186900F052FAC0F1200004E01E9B012BD9DD0B9F0120079B184410F01F0008D0C0F12003042B02DDC0F11C0002E006D0CA
:4046400018461C30079B8044034404440793B8F1000F05DD42460499504600F063FB0490079B002B05DD29461A46504600F05AFB0546109B23B32946049800F0A4FB0028E3
:404680001EDA00230A220499504600F0DBF90A9B0BF1FF3B0490002B00F05F81314600230A22504600F0CEF9B9F1000F06463FDC3BE000BFB8630000000014400000244072
:4046C000059B002B2BDC1E9B022B28DDDDF81490B9F1000F11D129464B460522504600F0B1F901460546049800F06DFB00280CDC03E0354600E000252E461F9B069C6FEA70
:40470000030B09E03546DDF820B0069B069A5C1C312313700BF1010B05960026F7E00A9BDDF8149023B9069CB2E01E9B022BCFDC002C05DD31462246504600F0F3FA0646C7
:404740009FB17168504600F031F90446326906F10C01023292000C30FEF73AFE01222146504600F0DFFA059000E00596029B069F03F00103079329460498FFF7D9FA314631
:40478000044600F13008049800F01DFB059A02902946504600F033FBC36802463BB901460A90049800F00FFB0A9A034600E00123114650460A9300F02EF90A9B53B91E9AB5
:4047C00042B9079A32B9B8F1390F2AD0029B002B1CDC1DE0029A002A04DB1BD11E9ACAB9079ABAB9002B13DD01220499504600F099FA2946049000F0E6FA002803DC07D104
:4048000018F0010F04D0B8F1390F0AD004F131087C1C0CE0002B07F101040BDDB8F1390F03D139233B70013756E008F1010887F800806CE0069B2746E31A4B4504F8018C54
:404840003BD000230A220499504600F0FBF8059B04909E424FF00A024FF000033146504604D100F0EFF80646059084E700F0EAF8002306460A220599504600F0E3F8059021
:4048800079E700230A220499504600F0DBF8049029460498FFF74CFA069B00F1300804F8018BE31A4B45ECDB069B0596B9F1010FACBF4B4401331F460026012204995046CD
:4048C00000F030FA2946049000F07DFA002803DC15D118F0010F12D03C4614F8013C621E392B09D1069B934204D10BF1010B3123069A02E01446F0E70133137007E03C464A
:4049000014F8013C621E302B01D11446F8E72946504600F080F8059B6BB12EB19E4203D03146504600F077F80599504600F073F801E0DDF820B00499504600F06CF8002362
:40494000209A23700BF101031360229B1BB11C6001E008480AE0069808E0B9F1000F3FF7E2AE1E9B022B7FF7DEAEB1E615B0BDE8F08F00BF7A630000004870475481FF1F5C
:40498000024B0146186800F041BB00BF5081FF1F10B5C9B202449042034605D01C7801308C42F8D1184610BD002010BD70B5456A04460E463DB91020FFF7E2FF6062456089
:4049C00085600560C560656AEB6843B1636ADB6853F8260078B1026843F8262017E021220421204600F0B8FA636AE860DB68002BECD1002070BD012101FA06F56A1D920078
:404A0000204600F0A9FA0028F3D04660856000230361C36070BD70B5446A06460D463CB91020FFF7ADFF7062446084600460C4603DB1736A6A68DB6853F82210296043F8F4
:404A4000225070BD2DE9F04106460C460D691F4601F1140E0023DEF80000013381B202FB0171000C0F0C02FB007089B201EB00419D424FEA10474EF8041BECDCD7B1A368C9
:404A80009D4212DB616830460131FFF78FFF8046226904F10C01023292000C30FEF798FC21463046FFF7B7FF444604EB850301355F6125612046BDE8F081030C1B0413B9DB
:404AC0000004102300E0002310F07F4F04BF0002083310F0704F04BF0001043310F0404F04BF80000233002803DB420003D5581C70471846704720207047036813F007021F
:404B00000BD0D90722D49A074BBF5B089B08036003604CBF01200220704799B209B91B0C102213F0FF0F04BF1B0A0832190704BF1B090432990704BF9B080232D90702D482
:404B40005B0805D00132036010467047002070472020704710B50C460121FFF727FF01224461026110BD2DE9F74F14460A69236988469A42BEBF0B46A0461C46D8F810707A
:404B8000D4F81090D8F80830D8F8041007EB09069E42C8BF0131FFF709FF00F114052B4605EB860C0022634502D243F8042BFAE704F1140208F1140102EB890301EB870713
:404BC0000093009B0192934257D9B2F800B0BBF1000F23D08946AE464FF0000859F8044BBEF800A0A3B20BFB03A34FEA144ADEF8004043444FEA14480BFB0A84F24604EB62
:404C000013449BB243EA04434F454FEA14484AF8043B01D9D646E1E7CEF80480019B0432B3F802A0BAF1000F21D02C4689462B684FF00008B9F800E0B4F802B09BB20AFB84
:404C40000EBEA346F04443EA08434BF8043B59F8043BB4F804E01B0C0AFB03E34F4503EB18434FEA134801D95C46E3E763600435A7E75CF8043D13B9013E002EF9DC0661D4
:404C800003B0BDE8F08F00002DE9F843154612F0030206460F4607D0214C013A002354F82220FFF7CFFE0746AD1036D0746A3CB91020FFF765FE7062446084600460C46088
:404CC000D6F82480D8F808404CB940F271213046FFF740FF04460023C8F8080003604FF00008EB070AD5394622463046FFF73BFF814639463046FFF78EFE4F466D100CD04D
:404D0000206808B10446ECE7224621463046FFF72AFF2060C0F80080F4E73846BDE8F883806400002DE9F0470C460746914626694FEA621A56444968A368751CAB4202DAE5
:404D400001315B00FAE73846FFF730FE002380461A4600F11401534503DA41F823200133F9E72AEAEA73206901EB830319F01F0904F1140101EB800E14D0C9F1200C0022C2
:404D800008689A4600FA09F0024343F8042B51F8042B8E4522FA0CF2F2D8CAF8042042B1B51C06E0043B51F8042B8E4543F8042FF9D8013D3846C8F810502146FFF72BFE17
:404DC0004046BDE8F08703690A6910B59B1A11D192001430143183180A4453F8044D52F8041D8C4202D007D3012010BD9842F4D3002010BD184610BD4FF0FF3010BD2DE959
:404E0000F8430C460746114620461546FFF7DBFF061E08D131463846FFF7C8FD012303614661BDE8F883BCBF23462C4638466168BABF1D4601260026FFF7B8FD2B69C66089
:404E4000266905F1140904F1140101EB860709EB830800F114054FF0000C51F8042B59F8044B93B29C44A3B2240CC3EB0C03C4EB124202EB23429BB24FEA224CC84543EA37
:404E800002428E4645F8042BE7D8BE450ED25EF8041B8AB26244131403EB114392B242EA03424FEA234C45F8042BEEE755F8043D0BB9013EFAE70661BDE8F8832DE9F3412B
:404EC0001C4601219046089E099DFFF76FFDC4F31302C4F30A5407460CB142F480120192B8F1000F19D002A840F8088DFFF705FE009B48B1019AC0F1200102FA01F10B4316
:404F0000C2407B61019200E07B61019B002B14BF02210121BB61396107E001A8FFF7EDFD019B01217B613961203034B1A4F2334404443460C0F1350009E0A0F2324007EB28
:404F4000810330601869FFF7B8FDC0EB41102860384602B0BDE8F08138B502FB01F4214600F054F8054618B122460021FEF73BFA284638BD38B50546002944D051F8043C7D
:404F80000C1F002BB8BFE41800F017FA1E4A1368114613B96360146030E0A3420DD92268A018834201BF18685B681218226063600C6023E0A24203D813465A68002AF9D159
:404FC00018681918A1420BD12168014458188242196013D110685268014419605A600DE002D90C232B6009E021686018824201BF106852680918216062605C602846BDE8E3
:40500000384000F0DBB938BDEC91FF1F70B5CD1C25F0030508350C2D38BF0C25002D064601DBA94202D90C23336046E000F0C5F9234B1C681A462146A1B10B685B1B0ED494
:405040000B2B03D90B60CC18CD501EE08C420BBF63684B681360636018BF0C4615E00C464968E9E7174C23681BB9304600F07AF920602946304600F075F9431C18D0C41CF2
:4050800024F00304A0420DD12560304600F096F904F10B00231D20F00700C31A0ED05A42E25070BD211A304600F05CF90130EBD10C233360304600F081F9002070BD00BFFD
:4050C000EC91FF1FE891FF1F2DE9F0478E6882469E420C46914698463ED88A8912F4906F3AD02568096902236F1A656905EB450595FBF3F57B1C43449D4238BF1D46530578
:405100000FD52946FFF782FF064698B13A462169FEF75EF9A38923F4906343F08003A38113E02A4600F04BF9064670B921695046FFF720FF0C23CAF80030A3894FF0FF30AE
:4051400043F04003A381BDE8F08726613E44266046466561ED1BA560464528BF464649463246206800F00EF9A36800209B1BA36023681E442660BDE8F08700002DE9F04F3F
:405180009DB003938B8980461C060D4616460DD50B695BB94021FFF739FF2860286118B90C23C8F80030CDE040236B610023099320238DF82930DFF89CB130238DF82A3055
:4051C00037463C4614F8013B1BB9B7EB060910D003E0252BF9D02746F3E74B46324629464046FFF771FF013000F0A780099B4B4409933B78002B00F0A08000234FF0FF32C4
:4052000004930793059206938DF853301A930126052221784E48FFF7BBFB671C049B38B14B4A3C46801A06FA00F018430490EFE7D90644BF20228DF853201A0744BF2B2231
:405240008DF8532022782A2A03D0079A00210A200BE0039A111D12680391002A10DA524243F00200079204900BE027463B780134303B092B03D800FB02320121F5E701B122
:4052800007923B782E2B1ED17B782A2B0AD1039B02371A1D1B680392002BB8BF4FF0FF33059310E0002319460593781C0A2407463A780130303A092A03D804FB01210123AD
:4052C000F5E703B10591032239782248FFF760FB40B14023CBEB000003FA00F0049B013718430490397806221B487E1C8DF82810FFF74EFB88B1194B33B9039B073323F0F4
:4053000007030833039314E003AB00932A46144B04A94046FEF700F907E003AB00932A460F4B04A94046FEF7B1FBB0F1FF3F824603D0099B5344099342E7AB895B0601D4C3
:40534000099801E04FF0FF301DB0BDE8F08F00BFB8640000BE640000C264000019350000C950000038B5064C0023054608462360FBF7A2FB431C02D1236803B12B6038BDC4
:4053800034A6FF1F884210B501EB020301D8421E0BE09842FBD28118D21AD34204D013F8014D01F8014DF8E710BD994204D011F8014B02F8014FF8E710BD70477047F8B5DB
:4053C000074615460E4621B91146BDE8F840FFF71DBE1AB9FFF7CEFD2846F8BD00F015F885420ED929463846FFF710FE044650B131462A46FDF7ECFF31463846FFF7BAFDCC
:4054000001E03046F8BD2046F8BD51F8040C0028BEBF091851F8043CC0180438704700004FEA410C7FEA6C5C02D150EA013C0AD14FEA430C7FEA6C5C02D152EA033C02D11C
:405440004FF0000070474FF0010070474FEA410212F5001215D211D56FF47873B3EB625212D94FEAC12343F0004343EA505311F0004F23FA02F018BF404270474FF0000041
:40548000704750EA013005D111F0004008BF6FF0004070474FF00000704700BF000000004325643A20252E316620487A202020003E3E2054454E53415220282B292020202A
:4054C000000000003C3C2041464C4F4A415220282D292020000000002A2A204146494E41444F202A2A2020200000000043756572646120256420282D2D2D29004573637578
:405500006368616E646F2E2E2E202020000000004166696E61646F72000000004C6973746F2E2E2E000000004375657264612025642E2E2E000000000000000060FFFF0076
:40554000D3FFFF00E203000017080000BB01000064EDFF009EDFFF0075F8FF00B43500000A580000DC1600004D88FF00C93FFF00B9C8FF004AE10000EF680100D371000003
:40558000178AFE00E5A3FD001B31FF00EE30020078980300785301009AFBFC00DDF1FA00C801FE0021DA03002A9E060096C50200CF68FB0026E2F7006A68FC0028210500E7
:4055C000A25D0900EA5B0400549CFA0000CEF500DF07FB0001550500727C0A0001550500DF07FB0000CEF500549CFA00EA5B0400A25D0900282105006A68FC0026E2F70024
:40560000CF68FB0096C502002A9E060021DA0300C801FE00DDF1FA009AFBFC007853010078980300EE3002001B31FF00E5A3FD00178AFE00D3710000EF6801004AE10000BA
:40564000B9C8FF00C93FFF004D88FF00DC1600000A580000B435000075F8FF009EDFFF0064EDFF00BB01000017080000E2030000D3FFFF0060FFFF0000000000000000006B
:405680004700000039FFFF00ACFBFF00ACF7FF0089F9FF00840700002B1F0000B52F0000842000005AE5FF000994FF005266FF008E9AFF00593E0000DA080100876D01001F
:4056C00067F000005890FF006DF8FD00F63BFD00C92AFE0006A20000F45D03005193040009120300073EFF008421FB00915CF900BA7AFB00E6BC00007D3F0600E49408000C
:4057000001EF05007275FF0066CFF800BF05F60059FFF800FC32000081760700717C0A0081760700FC32000059FFF800BF05F60066CFF8007275FF0001EF0500E494080076
:405740007D3F0600E6BC0000BA7AFB00915CF9008421FB00073EFF000912030051930400F45D030006A20000C92AFE00F63BFD006DF8FD005890FF0067F00000876D010016
:40578000DA080100593E00008E9AFF005266FF000994FF005AE5FF0084200000B52F00002B1F00008407000089F9FF00ACF7FF00ACFBFF0039FFFF00470000000000000013
:4057C000000000004E000000A6FFFF00A8FCFF0048F7FF0085F2FF0078F4FF0081030000DE200000764300001C57000077430000FEF9FF002385FF00510FFF006DD9FE004D
:40580000801FFF00B4F4FF0034280100B5450200AABA02008D170200AC520000E0E9FD003FC9FB002FF5FA004215FC00E412FF0018FF0200865806007AA00700E004060089
:4058400023D301007478FC00A802F800824EF600253AF8002A37FD0095720300BA8808006E7C0A00BA880800957203002A37FD00253AF800824EF600A802F8007478FC008B
:4058800023D30100E00406007AA007008658060018FF0200E412FF004215FC002FF5FA003FC9FB00E0E9FD00AC5200008D170200AABA0200B545020034280100B4F4FF00B0
:4058C000801FFF006DD9FE00510FFF002385FF00FEF9FF00774300001C57000076430000DE2000008103000078F4FF0085F2FF0048F7FF00A8FCFF00A6FFFF004E000000AE
:405900000000000000000000740000008900000000FFFF007CFAFF0080F2FF009AE8FF001DE1FF00C3E2FF00C4F4FF00941B000012550000C8950000D7C80000C9D30000FF
:405940004C9E0000301C0000B756FF004E71FE00ACA6FD00F03CFD006172FD007D67FE00F60C0000811C020024210400948F050000EA05004DE604008A8B0200563CFF001E
:40598000ABA8FB0001A8F8002904F7009A42F7008C7BF9008E4BFD0069E501001F410600875C09006C7C0A00875C09001F41060069E501008E4BFD008C7BF9009A42F7004E
:4059C0002904F70001A8F800ABA8FB00563CFF008A8B02004DE6040000EA0500948F050024210400811C0200F60C00007D67FE006172FD00F03CFD00ACA6FD004E71FE00CD
:405A0000B756FF00301C00004C9E0000C9D30000D7C80000C895000012550000941B0000C4F4FF00C3E2FF001DE1FF009AE8FF0080F2FF007CFAFF0000FFFF008900000030
:405A40007400000000000000000000006D000000D5010000A6040000C9080000470D000006100000DF0D000025030000A1ECFF00EEC8FF00E099FF009665FF00CA36FF00C4
:405A8000ED1BFF00FB24FF002060FF00B2D5FF0048840000F55D010094470200D41A030030AB03005BCD030012600300995402002FB50000AFA7FE00496BFC001851FA0017
:405AC00049B0F800B3D7F7004AFFF700373CF900187AFB00087BFE00FCDE01006E31050051FB070016D609007E7C0A0016D6090051FB07006E310500FCDE0100087BFE0067
:405B0000187AFB00373CF9004AFFF700B3D7F70049B0F8001851FA00496BFC00AFA7FE002FB5000099540200126003005BCD030030AB0300D41A030094470200F55D0100E1
:405B400048840000B2D5FF002060FF00FB24FF00ED1BFF00CA36FF009665FF00E099FF00EEC8FF00A1ECFF0025030000DF0D000006100000470D0000C9080000A604000084
:405B8000D50100006D000000000000000000000075FFFF0003FEFF004CFBFF0032F7FF0012F2FF00FBECFF00C7E9FF0019EBFF0020F4FF0025080000DE290000A75A0000DE
:405BC000A99900002EE3000039300100977601007EA90100C5BA0100A59C0100DB430100DDA90000E3CEFF0053BBFE005380FD003337FC00B0FFFA0003FDF9002252F9004A
:405C00007D1DF900D374F900A261FA00D0DEFB00D8D7FD00D529000055A60200BF170500C646070058000900351B0A00977C0A00351B0A0058000900C6460700BF170500D5
:405C400055A60200D5290000D8D7FD00D0DEFB00A261FA00D374F9007D1DF9002252F90003FDF900B0FFFA003337FC005380FD0053BBFE00E3CEFF00DDA90000DB4301005E
:405C8000A59C0100C5BA01007EA9010097760100393001002EE30000A9990000A75A0000DE2900002508000020F4FF0019EBFF00C7E9FF00FBECFF0012F2FF0032F7FF0024
:405CC0004CFBFF0003FEFF0075FFFF000000000000401454035B00402443004040000000C84900401900405100403000F051004010000000014000100014014000080040D4
:405D00000140000A004C0140000200500140200001112131416153637300000008090101050707040400000021F805014210864064F8150181F8050143518E210000000010
:405D40000000000000000000000000000000000000000000000000000000000000000000000000000000000000000000000000000000000000000000000000000000000023
:405D800000000000000000000000000000000000000000000000000000000000000000000000000000000000000000000000000000000000000000000000000000000000E3
:405DC00000000000000000000000000000000000000000000000000000000000000000000000000000000000000000000000000000000000000000000000000000000000A3
:405E000000000000000000000000000000000000000000000000000000000000000000000000000000000000502800000000000000000000000000000000000000000000EA
:405E4000000000000000000000000000000000000000000000000000000000000000000000000000000000000000000075FFFF0003FEFF004CFBFF0032F7FF0012F2FF003E
:405E8000FBECFF00C7E9FF0019EBFF0020F4FF0025080000DE290000A75A0000A99900002EE3000039300100977601007EA90100C5BA0100A59C0100DB430100DDA90000A8
:405EC000E3CEFF0053BBFE005380FD003337FC00B0FFFA0003FDF9002252F9007D1DF900D374F900A261FA00D0DEFB00D8D7FD00D529000055A60200BF170500C646070093
:405F000058000900351B0A00977C0A00351B0A0058000900C6460700BF17050055A60200D5290000D8D7FD00D0DEFB00A261FA00D374F9007D1DF9002252F90003FDF9005A
:405F4000B0FFFA003337FC005380FD0053BBFE00E3CEFF00DDA90000DB430100A59C0100C5BA01007EA9010097760100393001002EE30000A9990000A75A0000DE29000024
:405F80002508000020F4FF0019EBFF00C7E9FF00FBECFF0012F2FF0032F7FF004CFBFF0003FEFF0075FFFF0000000000000000000000000000000000000000000000000025
:405FC00000000000000000000000000000000000000000000000000000000000000000000000000000000000000000000000000000000000000000000000000000000000A1
:406000000000000000000000000000000000000000000000000000000000000000000000000000000000000000000000000000000000000000000000000000000000000060
:406040000000000000000000000000000000000000000000000000000000000000000000000000000000000000000000000000000000000000000000000000000000000020
:4060800000000000000000000000000000000000000000000000000000000000000000000000000000000000000000000000000000000000000000000000000000000000E0
:4060C00000000000000000000000000000000000000000000000000000000000000000000000000000000000000000000000000000000000000000000000000000000000A0
:40610000000000000000000000000000000000000000000000000000000000000000000000000000000000000000000000000000000000000000000000000000000000005F
:40614000000000000000000000000000000000000000000000000000000000000000000000000000000000000000000000000000000000000000000000000000000000001F
:4061800000000000000000000000000000000000000000000000000000000000000000000000000000000000000000000000000000000000000000000000000000000000DF
:4061C000000000000000000000000000000000000000000000000000000000000000000000000000000000000000000000000000000000000000000000000000000000009F
:40620000000000000000000000000000000000000000000000000000000000000000000000000000000000000000000000000000000000000000000000000000000000005E
:4062400000000000000000000000000000000000000000000000000000000000000000000000000000000000201300256117802601008026E00E8026C20C80260200800671
:406280006587186D6409183E00008026032080262102187F000000000000000000000000000000000000000000000000000000000000000000000000000000000000000081
:4062C000000000000000000000000000000000000000000000000000000000000000000000000000000000000000000000000000000000000000000000000000000000009E
:40630000000000000000000000000000000000000000000000000000000000000000000000000000000000000000000000000000000000000000000000000000000000005D
:40634000000000000000000000000000000000000000000000000000000000000000000000000000000000004300494E4600696E66004E414E006E616E00300030313233B0
:40638000343536373839414243444546003031323334353637383961626364656600496E66696E697479004E614E00504F534958002E000000000000000000000000F03F68
:4063C000000000000000244000000000000059400000000000408F40000000000088C34000000000006AF8400000000080842E4100000000D01263410000000084D7974138
:406400000000000065CDCD41000000205FA00242000000E876483742000000A2941A6D42000040E59C30A2420000901EC4BCD64200003426F56B0C430080E03779C3414320
:4064400000A0D8855734764300C84E676DC1AB43003D9160E458E143408CB5781DAF154450EFE2D6E41A4B4492D54D06CFF08044F64AE1C7022DB544B49DD9794378EA4439
:4064800005000000190000007D000000000000000080E03779C34143176E05B5B5B89346F5F93FE9034F384D321D30F94877825A3CBF737FDD4F1575232D302B2000686C23
:4064C0004C0065666745464700000000F8B500BFF8BC08BC9E4670474D000000390B0000F8B500BFF8BC08BC9E4670472900000000650000C880FF1FC8000000A824000035
:406500000000000038A6FF1F7F800000030100000000B8887011010046000000801D2C04FFFFFF01FF0000000000000000000000000000000000000000000000000000008A
:406540000000000000000000686300000000000000000000000000000000000000000000000000000000000000000000000000000000000000000000000000000000000050
:406580000000000000000000F080FF1FB1630000BD640000BD640000BD640000BD640000BD640000BD640000BD640000BD640000BD640000FFFFFFFFFFFFFFFFFFFFFFFF1C
:4065C000FFFF00000000000000000000000000000000000000000000000000000000000000000000000000000000000000000000000000000000000000000000000000009D
:40660000000000000000000000000000000000000000000000000000000000000000000000000000000000000000000000000000000000000000000000000000000000005A
:40664000000000000000000000000000000000000000000000000000000000000000000000000000000000000000000000000000000000000000000000000000000000001A
:4066800000000000000000000000000000000000000000000000000000000000000000000000000000000000000000000000000000000000000000000000000000000000DA
:4066C000000000000000000000000000000000000000000000000000000000000000000000000000000000000000000000000000000000000000000000000000000000009A
:020000040003F7
:0200000480007A
:400000000152004001050140120A0140130B0140020D0140031401400A150140051B0140034001400641014007420140014301400244014002450140024601400147014085
:400040000348014013490140084C01400B4D014006500140045101406002EC0856085B045D1098029A01AC01AE06B404B603B808BE44D280D610D80FDB0FDC01DD10DF0100
:400080000A400B800E0817801E081F4859405E40628077807E809940A708AD40C240C480D618D808DE808708E402D608DB04DD905E805F2083208640D630E008E401E6100E
:4000C000EA05EC10E008E401E610EA05EC103A083F80CE6028802A082BC09E08A740CA403E1044809880AF80CE20D080EC1096107F10DE01871097204508D001A5082510E7
:400100009610C82012201640170474087B028220830486608C08A302AA10AB02B510C430DC80DE20E090E4C0EAA01108132017047B107F40A508C40EDE03831087408F0437
:4001400097809B04A710A904AB20B508E608EC08000202140C02110112141B01000103C0100A12020000000000003700030000000300030000000000000B0B000000000039
:40018000E0E0000000000000000000000000E00022021801000000000000000000000000000000000000000000000000000000000000000000000000000000000000000062
:4001C00000000000000000000000000000000000000000000000000000000000000000000000000000000000000000000000000000000000000000000000000000000000FF
:4002000000000000000000000000000000000000000000000000000000000000000000000000000000000000000000000000000000000000000000000000000000000000BE
:40024000000000000000000000000000000000000000000000000000000000000000000000000000000000000000000000000000000000000000000000000000000000007E
:40028000000000000000000000000000000000000000000000000000000000000000000000000000000000000000000000000000000000000000000000000000000000003E
:0200000490006A
:0400000000004005B7
:0200000490105A
:04000000BC90ACAF55
:0200000490303A
:02000000D69890
:0200000490402A
:4000000000000000000000000000000000000000000000000000000000000000000000000000000000000000000000000000000000000000000000000000000000000000C0
:400040000000000000000000000000000000000000000000000000000000000000000000000000000000000000000000000000000000000000000000000000000000000080
:400080000000000000000000000000000000000000000000000000000000000000000000000000000000000000000000000000000000000000000000000000000000000040
:4000C0000000000000000000000000000000000000000000000000000000000000000000000000000000000000000000000000000000000000000000000000000000000000
:0200000490501A
:0C00000000012E16106900012E3AE701E5
:00000001FF